{
    "_format": "hh-sol-artifact-1",
    "contractName": "Ads",
    "sourceName": "contracts/Ads.sol",
    "abi": [
        {
            "inputs": [],
            "stateMutability": "nonpayable",
            "type": "constructor"
        },
        {
            "anonymous": false,
            "inputs": [
                {
                    "indexed": true,
                    "internalType": "address",
                    "name": "owner",
                    "type": "address"
                },
                {
                    "indexed": true,
                    "internalType": "address",
                    "name": "spender",
                    "type": "address"
                },
                {
                    "indexed": false,
                    "internalType": "uint256",
                    "name": "value",
                    "type": "uint256"
                }
            ],
            "name": "Approval",
            "type": "event"
        },
        {
            "anonymous": false,
            "inputs": [
                {
                    "indexed": true,
                    "internalType": "address",
                    "name": "from",
                    "type": "address"
                },
                {
                    "indexed": true,
                    "internalType": "address",
                    "name": "to",
                    "type": "address"
                },
                {
                    "indexed": false,
                    "internalType": "uint256",
                    "name": "value",
                    "type": "uint256"
                }
            ],
            "name": "Transfer",
            "type": "event"
        },
        {
            "inputs": [
                {
                    "internalType": "address",
                    "name": "owner",
                    "type": "address"
                },
                {
                    "internalType": "address",
                    "name": "spender",
                    "type": "address"
                }
            ],
            "name": "allowance",
            "outputs": [
                {
                    "internalType": "uint256",
                    "name": "",
                    "type": "uint256"
                }
            ],
            "stateMutability": "view",
            "type": "function"
        },
        {
            "inputs": [
                {
                    "internalType": "address",
                    "name": "spender",
                    "type": "address"
                },
                {
                    "internalType": "uint256",
                    "name": "amount",
                    "type": "uint256"
                }
            ],
            "name": "approve",
            "outputs": [
                {
                    "internalType": "bool",
                    "name": "",
                    "type": "bool"
                }
            ],
            "stateMutability": "nonpayable",
            "type": "function"
        },
        {
            "inputs": [
                {
                    "internalType": "address",
                    "name": "tokenOwner",
                    "type": "address"
                }
            ],
            "name": "balanceOf",
            "outputs": [
                {
                    "internalType": "uint256",
                    "name": "",
                    "type": "uint256"
                }
            ],
            "stateMutability": "view",
            "type": "function"
        },
        {
            "inputs": [],
            "name": "decimals",
            "outputs": [
                {
                    "internalType": "uint8",
                    "name": "",
                    "type": "uint8"
                }
            ],
            "stateMutability": "view",
            "type": "function"
        },
        {
            "inputs": [
                {
                    "internalType": "address",
                    "name": "spender",
                    "type": "address"
                },
                {
                    "internalType": "uint256",
                    "name": "subtractedValue",
                    "type": "uint256"
                }
            ],
            "name": "decreaseAllowance",
            "outputs": [
                {
                    "internalType": "bool",
                    "name": "",
                    "type": "bool"
                }
            ],
            "stateMutability": "nonpayable",
            "type": "function"
        },
        {
            "inputs": [
                {
                    "internalType": "address",
                    "name": "spender",
                    "type": "address"
                },
                {
                    "internalType": "uint256",
                    "name": "addedValue",
                    "type": "uint256"
                }
            ],
            "name": "increaseAllowance",
            "outputs": [
                {
                    "internalType": "bool",
                    "name": "",
                    "type": "bool"
                }
            ],
            "stateMutability": "nonpayable",
            "type": "function"
        },
        {
            "inputs": [
                {
                    "internalType": "address",
                    "name": "to",
                    "type": "address"
                }
            ],
            "name": "mint",
            "outputs": [],
            "stateMutability": "nonpayable",
            "type": "function"
        },
        {
            "inputs": [],
            "name": "name",
            "outputs": [
                {
                    "internalType": "string",
                    "name": "",
                    "type": "string"
                }
            ],
            "stateMutability": "view",
            "type": "function"
        },
        {
            "inputs": [
                {
                    "internalType": "address",
                    "name": "to",
                    "type": "address"
                }
            ],
            "name": "reward",
            "outputs": [
                {
                    "internalType": "bool",
                    "name": "success",
                    "type": "bool"
                }
            ],
            "stateMutability": "nonpayable",
            "type": "function"
        },
        {
            "inputs": [],
            "name": "symbol",
            "outputs": [
                {
                    "internalType": "string",
                    "name": "",
                    "type": "string"
                }
            ],
            "stateMutability": "view",
            "type": "function"
        },
        {
            "inputs": [],
            "name": "totalSupply",
            "outputs": [
                {
                    "internalType": "uint256",
                    "name": "",
                    "type": "uint256"
                }
            ],
            "stateMutability": "view",
            "type": "function"
        },
        {
            "inputs": [
                {
                    "internalType": "address",
                    "name": "to",
                    "type": "address"
                },
                {
                    "internalType": "uint256",
                    "name": "amount",
                    "type": "uint256"
                }
            ],
            "name": "transfer",
            "outputs": [
                {
                    "internalType": "bool",
                    "name": "",
                    "type": "bool"
                }
            ],
            "stateMutability": "nonpayable",
            "type": "function"
        },
        {
            "inputs": [
                {
                    "internalType": "address",
                    "name": "from",
                    "type": "address"
                },
                {
                    "internalType": "address",
                    "name": "to",
                    "type": "address"
                },
                {
                    "internalType": "uint256",
                    "name": "amount",
                    "type": "uint256"
                }
            ],
            "name": "transferFrom",
            "outputs": [
                {
                    "internalType": "bool",
                    "name": "",
                    "type": "bool"
                }
            ],
            "stateMutability": "nonpayable",
            "type": "function"
        }
    ],
    "bytecode": "0x60806040523480156200001157600080fd5b506040518060400160405280600381526020017f41647300000000000000000000000000000000000000000000000000000000008152506040518060400160405280600381526020017f554e430000000000000000000000000000000000000000000000000000000000815250816003908051906020019062000096929190620000f9565b508060049080519060200190620000af929190620000f9565b50505033600560006101000a81548173ffffffffffffffffffffffffffffffffffffffff021916908373ffffffffffffffffffffffffffffffffffffffff1602179055506200020e565b8280546200010790620001d8565b90600052602060002090601f0160209004810192826200012b576000855562000177565b82601f106200014657805160ff191683800117855562000177565b8280016001018555821562000177579182015b828111156200017657825182559160200191906001019062000159565b5b5090506200018691906200018a565b5090565b5b80821115620001a55760008160009055506001016200018b565b5090565b7f4e487b7100000000000000000000000000000000000000000000000000000000600052602260045260246000fd5b60006002820490506001821680620001f157607f821691505b60208210811415620002085762000207620001a9565b5b50919050565b61192c806200021e6000396000f3fe608060405234801561001057600080fd5b50600436106100cf5760003560e01c80636353586b1161008c57806395d89b411161006657806395d89b411461023a578063a457c2d714610258578063a9059cbb14610288578063dd62ed3e146102b8576100cf565b80636353586b146101be5780636a627842146101ee57806370a082311461020a576100cf565b806306fdde03146100d4578063095ea7b3146100f257806318160ddd1461012257806323b872dd14610140578063313ce56714610170578063395093511461018e575b600080fd5b6100dc6102e8565b6040516100e99190610eca565b60405180910390f35b61010c60048036038101906101079190610f85565b61037a565b6040516101199190610fe0565b60405180910390f35b61012a61039d565b604051610137919061100a565b60405180910390f35b61015a60048036038101906101559190611025565b6103a7565b6040516101679190610fe0565b60405180910390f35b6101786103d6565b6040516101859190611094565b60405180910390f35b6101a860048036038101906101a39190610f85565b6103df565b6040516101b59190610fe0565b60405180910390f35b6101d860048036038101906101d391906110af565b610416565b6040516101e59190610fe0565b60405180910390f35b610208600480360381019061020391906110af565b6104bd565b005b610224600480360381019061021f91906110af565b61057d565b604051610231919061100a565b60405180910390f35b610242610634565b60405161024f9190610eca565b60405180910390f35b610272600480360381019061026d9190610f85565b6106c6565b60405161027f9190610fe0565b60405180910390f35b6102a2600480360381019061029d9190610f85565b61073d565b6040516102af9190610fe0565b60405180910390f35b6102d260048036038101906102cd91906110dc565b610760565b6040516102df919061100a565b60405180910390f35b6060600380546102f79061114b565b80601f01602080910402602001604051908101604052809291908181526020018280546103239061114b565b80156103705780601f1061034557610100808354040283529160200191610370565b820191906000526020600020905b81548152906001019060200180831161035357829003601f168201915b5050505050905090565b6000806103856107e7565b90506103928185856107ef565b600191505092915050565b6000600254905090565b6000806103b26107e7565b90506103bf8582856109ba565b6103ca858585610a46565b60019150509392505050565b60006012905090565b6000806103ea6107e7565b905061040b8185856103fc8589610760565b61040691906111ac565b6107ef565b600191505092915050565b60003373ffffffffffffffffffffffffffffffffffffffff168273ffffffffffffffffffffffffffffffffffffffff1614610486576040517f08c379a000000000000000000000000000000000000000000000000000000000815260040161047d9061124e565b60405180910390fd5b6104b4600560009054906101000a900473ffffffffffffffffffffffffffffffffffffffff16836064610a46565b60019050919050565b600560009054906101000a900473ffffffffffffffffffffffffffffffffffffffff1673ffffffffffffffffffffffffffffffffffffffff163373ffffffffffffffffffffffffffffffffffffffff161461054d576040517f08c379a00000000000000000000000000000000000000000000000000000000081526004016105449061124e565b60405180910390fd5b61057a816105596103d6565b60ff16600a61056891906113a1565b6103e861057591906113ec565b610cc7565b50565b60003373ffffffffffffffffffffffffffffffffffffffff168273ffffffffffffffffffffffffffffffffffffffff16146105ed576040517f08c379a00000000000000000000000000000000000000000000000000000000081526004016105e490611492565b60405180910390fd5b600660008373ffffffffffffffffffffffffffffffffffffffff1673ffffffffffffffffffffffffffffffffffffffff168152602001908152602001600020549050919050565b6060600480546106439061114b565b80601f016020809104026020016040519081016040528092919081815260200182805461066f9061114b565b80156106bc5780601f10610691576101008083540402835291602001916106bc565b820191906000526020600020905b81548152906001019060200180831161069f57829003601f168201915b5050505050905090565b6000806106d16107e7565b905060006106df8286610760565b905083811015610724576040517f08c379a000000000000000000000000000000000000000000000000000000000815260040161071b90611524565b60405180910390fd5b61073182868684036107ef565b60019250505092915050565b6000806107486107e7565b9050610755818585610a46565b600191505092915050565b6000600160008473ffffffffffffffffffffffffffffffffffffffff1673ffffffffffffffffffffffffffffffffffffffff16815260200190815260200160002060008373ffffffffffffffffffffffffffffffffffffffff1673ffffffffffffffffffffffffffffffffffffffff16815260200190815260200160002054905092915050565b600033905090565b600073ffffffffffffffffffffffffffffffffffffffff168373ffffffffffffffffffffffffffffffffffffffff16141561085f576040517f08c379a0000000000000000000000000000000000000000000000000000000008152600401610856906115b6565b60405180910390fd5b600073ffffffffffffffffffffffffffffffffffffffff168273ffffffffffffffffffffffffffffffffffffffff1614156108cf576040517f08c379a00000000000000000000000000000000000000000000000000000000081526004016108c690611648565b60405180910390fd5b80600160008573ffffffffffffffffffffffffffffffffffffffff1673ffffffffffffffffffffffffffffffffffffffff16815260200190815260200160002060008473ffffffffffffffffffffffffffffffffffffffff1673ffffffffffffffffffffffffffffffffffffffff168152602001908152602001600020819055508173ffffffffffffffffffffffffffffffffffffffff168373ffffffffffffffffffffffffffffffffffffffff167f8c5be1e5ebec7d5bd14f71427d1e84f3dd0314c0f7b2291e5b200ac8c7c3b925836040516109ad919061100a565b60405180910390a3505050565b60006109c68484610760565b90507fffffffffffffffffffffffffffffffffffffffffffffffffffffffffffffffff8114610a405781811015610a32576040517f08c379a0000000000000000000000000000000000000000000000000000000008152600401610a29906116b4565b60405180910390fd5b610a3f84848484036107ef565b5b50505050565b600073ffffffffffffffffffffffffffffffffffffffff168373ffffffffffffffffffffffffffffffffffffffff161415610ab6576040517f08c379a0000000000000000000000000000000000000000000000000000000008152600401610aad90611746565b60405180910390fd5b600073ffffffffffffffffffffffffffffffffffffffff168273ffffffffffffffffffffffffffffffffffffffff161415610b26576040517f08c379a0000000000000000000000000000000000000000000000000000000008152600401610b1d906117d8565b60405180910390fd5b610b31838383610e27565b60008060008573ffffffffffffffffffffffffffffffffffffffff1673ffffffffffffffffffffffffffffffffffffffff16815260200190815260200160002054905081811015610bb7576040517f08c379a0000000000000000000000000000000000000000000000000000000008152600401610bae9061186a565b60405180910390fd5b8181036000808673ffffffffffffffffffffffffffffffffffffffff1673ffffffffffffffffffffffffffffffffffffffff16815260200190815260200160002081905550816000808573ffffffffffffffffffffffffffffffffffffffff1673ffffffffffffffffffffffffffffffffffffffff1681526020019081526020016000206000828254610c4a91906111ac565b925050819055508273ffffffffffffffffffffffffffffffffffffffff168473ffffffffffffffffffffffffffffffffffffffff167fddf252ad1be2c89b69c2b068fc378daa952ba7f163c4a11628f55a4df523b3ef84604051610cae919061100a565b60405180910390a3610cc1848484610e2c565b50505050565b600073ffffffffffffffffffffffffffffffffffffffff168273ffffffffffffffffffffffffffffffffffffffff161415610d37576040517f08c379a0000000000000000000000000000000000000000000000000000000008152600401610d2e906118d6565b60405180910390fd5b610d4360008383610e27565b8060026000828254610d5591906111ac565b92505081905550806000808473ffffffffffffffffffffffffffffffffffffffff1673ffffffffffffffffffffffffffffffffffffffff1681526020019081526020016000206000828254610daa91906111ac565b925050819055508173ffffffffffffffffffffffffffffffffffffffff16600073ffffffffffffffffffffffffffffffffffffffff167fddf252ad1be2c89b69c2b068fc378daa952ba7f163c4a11628f55a4df523b3ef83604051610e0f919061100a565b60405180910390a3610e2360008383610e2c565b5050565b505050565b505050565b600081519050919050565b600082825260208201905092915050565b60005b83811015610e6b578082015181840152602081019050610e50565b83811115610e7a576000848401525b50505050565b6000601f19601f8301169050919050565b6000610e9c82610e31565b610ea68185610e3c565b9350610eb6818560208601610e4d565b610ebf81610e80565b840191505092915050565b60006020820190508181036000830152610ee48184610e91565b905092915050565b600080fd5b600073ffffffffffffffffffffffffffffffffffffffff82169050919050565b6000610f1c82610ef1565b9050919050565b610f2c81610f11565b8114610f3757600080fd5b50565b600081359050610f4981610f23565b92915050565b6000819050919050565b610f6281610f4f565b8114610f6d57600080fd5b50565b600081359050610f7f81610f59565b92915050565b60008060408385031215610f9c57610f9b610eec565b5b6000610faa85828601610f3a565b9250506020610fbb85828601610f70565b9150509250929050565b60008115159050919050565b610fda81610fc5565b82525050565b6000602082019050610ff56000830184610fd1565b92915050565b61100481610f4f565b82525050565b600060208201905061101f6000830184610ffb565b92915050565b60008060006060848603121561103e5761103d610eec565b5b600061104c86828701610f3a565b935050602061105d86828701610f3a565b925050604061106e86828701610f70565b9150509250925092565b600060ff82169050919050565b61108e81611078565b82525050565b60006020820190506110a96000830184611085565b92915050565b6000602082840312156110c5576110c4610eec565b5b60006110d384828501610f3a565b91505092915050565b600080604083850312156110f3576110f2610eec565b5b600061110185828601610f3a565b925050602061111285828601610f3a565b9150509250929050565b7f4e487b7100000000000000000000000000000000000000000000000000000000600052602260045260246000fd5b6000600282049050600182168061116357607f821691505b602082108114156111775761117661111c565b5b50919050565b7f4e487b7100000000000000000000000000000000000000000000000000000000600052601160045260246000fd5b60006111b782610f4f565b91506111c283610f4f565b9250827fffffffffffffffffffffffffffffffffffffffffffffffffffffffffffffffff038211156111f7576111f661117d565b5b828201905092915050565b7f6e6f206163636573730000000000000000000000000000000000000000000000600082015250565b6000611238600983610e3c565b915061124382611202565b602082019050919050565b600060208201905081810360008301526112678161122b565b9050919050565b60008160011c9050919050565b6000808291508390505b60018511156112c5578086048111156112a1576112a061117d565b5b60018516156112b05780820291505b80810290506112be8561126e565b9450611285565b94509492505050565b6000826112de576001905061139a565b816112ec576000905061139a565b8160018114611302576002811461130c5761133b565b600191505061139a565b60ff84111561131e5761131d61117d565b5b8360020a9150848211156113355761133461117d565b5b5061139a565b5060208310610133831016604e8410600b84101617156113705782820a90508381111561136b5761136a61117d565b5b61139a565b61137d848484600161127b565b925090508184048111156113945761139361117d565b5b81810290505b9392505050565b60006113ac82610f4f565b91506113b783610f4f565b92506113e47fffffffffffffffffffffffffffffffffffffffffffffffffffffffffffffffff84846112ce565b905092915050565b60006113f782610f4f565b915061140283610f4f565b9250817fffffffffffffffffffffffffffffffffffffffffffffffffffffffffffffffff048311821515161561143b5761143a61117d565b5b828202905092915050565b7f6e6f7420746f6b656e4f776e6572000000000000000000000000000000000000600082015250565b600061147c600e83610e3c565b915061148782611446565b602082019050919050565b600060208201905081810360008301526114ab8161146f565b9050919050565b7f45524332303a2064656372656173656420616c6c6f77616e63652062656c6f7760008201527f207a65726f000000000000000000000000000000000000000000000000000000602082015250565b600061150e602583610e3c565b9150611519826114b2565b604082019050919050565b6000602082019050818103600083015261153d81611501565b9050919050565b7f45524332303a20617070726f76652066726f6d20746865207a65726f2061646460008201527f7265737300000000000000000000000000000000000000000000000000000000602082015250565b60006115a0602483610e3c565b91506115ab82611544565b604082019050919050565b600060208201905081810360008301526115cf81611593565b9050919050565b7f45524332303a20617070726f766520746f20746865207a65726f20616464726560008201527f7373000000000000000000000000000000000000000000000000000000000000602082015250565b6000611632602283610e3c565b915061163d826115d6565b604082019050919050565b6000602082019050818103600083015261166181611625565b9050919050565b7f45524332303a20696e73756666696369656e7420616c6c6f77616e6365000000600082015250565b600061169e601d83610e3c565b91506116a982611668565b602082019050919050565b600060208201905081810360008301526116cd81611691565b9050919050565b7f45524332303a207472616e736665722066726f6d20746865207a65726f20616460008201527f6472657373000000000000000000000000000000000000000000000000000000602082015250565b6000611730602583610e3c565b915061173b826116d4565b604082019050919050565b6000602082019050818103600083015261175f81611723565b9050919050565b7f45524332303a207472616e7366657220746f20746865207a65726f206164647260008201527f6573730000000000000000000000000000000000000000000000000000000000602082015250565b60006117c2602383610e3c565b91506117cd82611766565b604082019050919050565b600060208201905081810360008301526117f1816117b5565b9050919050565b7f45524332303a207472616e7366657220616d6f756e742065786365656473206260008201527f616c616e63650000000000000000000000000000000000000000000000000000602082015250565b6000611854602683610e3c565b915061185f826117f8565b604082019050919050565b6000602082019050818103600083015261188381611847565b9050919050565b7f45524332303a206d696e7420746f20746865207a65726f206164647265737300600082015250565b60006118c0601f83610e3c565b91506118cb8261188a565b602082019050919050565b600060208201905081810360008301526118ef816118b3565b905091905056fea2646970667358221220885f0c4e36657d7906af41b5fd3362b4c57a7864f9707c330c8dcd002bb9e64c64736f6c63430008090033",
    "linkReferences": {},
    "deployedLinkReferences": {}
}