{
  "_format": "hh-sol-artifact-1",
  "contractName": "RegisterAds",
  "sourceName": "contracts/register.sol",
  "abi": [
    {
      "anonymous": false,
      "inputs": [
        {
          "indexed": false,
          "internalType": "address",
          "name": "owner",
          "type": "address"
        },
        {
          "indexed": false,
          "internalType": "string",
          "name": "name",
          "type": "string"
        }
      ],
      "name": "registerComplete",
      "type": "event"
    },
    {
      "inputs": [
        {
          "internalType": "uint256",
          "name": "adId",
          "type": "uint256"
        }
      ],
      "name": "getEducation",
      "outputs": [
        {
          "internalType": "uint256",
          "name": "",
          "type": "uint256"
        }
      ],
      "stateMutability": "view",
      "type": "function"
    },
    {
      "inputs": [
        {
          "internalType": "uint256",
          "name": "adId",
          "type": "uint256"
        }
      ],
      "name": "getExercise",
      "outputs": [
        {
          "internalType": "uint256",
          "name": "",
          "type": "uint256"
        }
      ],
      "stateMutability": "view",
      "type": "function"
    },
    {
      "inputs": [
        {
          "internalType": "uint256",
          "name": "adId",
          "type": "uint256"
        }
      ],
      "name": "getFood",
      "outputs": [
        {
          "internalType": "uint256",
          "name": "",
          "type": "uint256"
        }
      ],
      "stateMutability": "view",
      "type": "function"
    },
    {
      "inputs": [
        {
          "internalType": "uint256",
          "name": "adId",
          "type": "uint256"
        }
      ],
      "name": "getMedical",
      "outputs": [
        {
          "internalType": "uint256",
          "name": "",
          "type": "uint256"
        }
      ],
      "stateMutability": "view",
      "type": "function"
    },
    {
      "inputs": [
        {
          "internalType": "uint256",
          "name": "adId",
          "type": "uint256"
        }
      ],
      "name": "getTravel",
      "outputs": [
        {
          "internalType": "uint256",
          "name": "",
          "type": "uint256"
        }
      ],
      "stateMutability": "view",
      "type": "function"
    },
    {
      "inputs": [
        {
          "internalType": "string",
          "name": "url",
          "type": "string"
        },
        {
          "internalType": "string",
          "name": "name",
          "type": "string"
        },
        {
          "internalType": "uint256",
          "name": "fashion",
          "type": "uint256"
        },
        {
          "internalType": "uint256",
          "name": "food",
          "type": "uint256"
        },
        {
          "internalType": "uint256",
          "name": "travel",
          "type": "uint256"
        },
        {
          "internalType": "uint256",
          "name": "medical",
          "type": "uint256"
        },
        {
          "internalType": "uint256",
          "name": "education",
          "type": "uint256"
        },
        {
          "internalType": "uint256",
          "name": "exercise",
          "type": "uint256"
        }
      ],
      "name": "registerAds",
      "outputs": [],
      "stateMutability": "nonpayable",
      "type": "function"
    },
    {
      "inputs": [
        {
          "internalType": "uint256",
          "name": "adId",
          "type": "uint256"
        }
      ],
      "name": "showAdFashion",
      "outputs": [
        {
          "internalType": "uint256",
          "name": "",
          "type": "uint256"
        }
      ],
      "stateMutability": "view",
      "type": "function"
    },
    {
      "inputs": [
        {
          "internalType": "uint256[2]",
          "name": "a",
          "type": "uint256[2]"
        },
        {
          "internalType": "uint256[2][2]",
          "name": "b",
          "type": "uint256[2][2]"
        },
        {
          "internalType": "uint256[2]",
          "name": "c",
          "type": "uint256[2]"
        },
        {
          "internalType": "uint256[50]",
          "name": "input",
          "type": "uint256[50]"
        }
      ],
      "name": "verifyProof",
      "outputs": [
        {
          "internalType": "bool",
          "name": "r",
          "type": "bool"
        }
      ],
      "stateMutability": "view",
      "type": "function"
    }
  ],
  "bytecode": "0x608060405234801561001057600080fd5b50613774806100206000396000f3fe608060405234801561001057600080fd5b50600436106100885760003560e01c8063b7c2f87c1161005b578063b7c2f87c14610139578063c5de628614610169578063e707a0f514610199578063f96e32f8146101c957610088565b80631e4de8721461008d578063672e2fe6146100bd578063a4057f58146100ed578063a63bed3714610109575b600080fd5b6100a760048036038101906100a29190612b57565b6101f9565b6040516100b49190612b93565b60405180910390f35b6100d760048036038101906100d29190612b57565b6103e0565b6040516100e49190612b93565b60405180910390f35b61010760048036038101906101029190612cf4565b6105c7565b005b610123600480360381019061011e9190612ffa565b61087b565b604051610130919061307e565b60405180910390f35b610153600480360381019061014e9190612b57565b610af5565b6040516101609190612b93565b60405180910390f35b610183600480360381019061017e9190612b57565b610cdd565b6040516101909190612b93565b60405180910390f35b6101b360048036038101906101ae9190612b57565b610ec4565b6040516101c09190612b93565b60405180910390f35b6101e360048036038101906101de9190612b57565b6110ab565b6040516101f09190612b93565b60405180910390f35b600080600a60008481526020019081526020016000206040518061012001604052908160008201805461022b906130c8565b80601f0160208091040260200160405190810160405280929190818152602001828054610257906130c8565b80156102a45780601f10610279576101008083540402835291602001916102a4565b820191906000526020600020905b81548152906001019060200180831161028757829003601f168201915b505050505081526020016001820180546102bd906130c8565b80601f01602080910402602001604051908101604052809291908181526020018280546102e9906130c8565b80156103365780601f1061030b57610100808354040283529160200191610336565b820191906000526020600020905b81548152906001019060200180831161031957829003601f168201915b505050505081526020016002820160009054906101000a900473ffffffffffffffffffffffffffffffffffffffff1673ffffffffffffffffffffffffffffffffffffffff1673ffffffffffffffffffffffffffffffffffffffff168152602001600382015481526020016004820154815260200160058201548152602001600682015481526020016007820154815260200160088201548152505090508060800151915050919050565b600080600a600084815260200190815260200160002060405180610120016040529081600082018054610412906130c8565b80601f016020809104026020016040519081016040528092919081815260200182805461043e906130c8565b801561048b5780601f106104605761010080835404028352916020019161048b565b820191906000526020600020905b81548152906001019060200180831161046e57829003601f168201915b505050505081526020016001820180546104a4906130c8565b80601f01602080910402602001604051908101604052809291908181526020018280546104d0906130c8565b801561051d5780601f106104f25761010080835404028352916020019161051d565b820191906000526020600020905b81548152906001019060200180831161050057829003601f168201915b505050505081526020016002820160009054906101000a900473ffffffffffffffffffffffffffffffffffffffff1673ffffffffffffffffffffffffffffffffffffffff1673ffffffffffffffffffffffffffffffffffffffff168152602001600382015481526020016004820154815260200160058201548152602001600682015481526020016007820154815260200160088201548152505090508060600151915050919050565b60006105d36009611292565b90506105e589898989898989896112a0565b6000600a6000838152602001908152602001600020600082018160000190805461060e906130c8565b61061992919061289b565b50600182018160010190805461062e906130c8565b61063992919061289b565b506002820160009054906101000a900473ffffffffffffffffffffffffffffffffffffffff168160020160006101000a81548173ffffffffffffffffffffffffffffffffffffffff021916908373ffffffffffffffffffffffffffffffffffffffff16021790555060038201548160030155600482015481600401556005820154816005015560068201548160060155600782015481600701556008820154816008015590505033600b600083815260200190815260200160002060006101000a81548173ffffffffffffffffffffffffffffffffffffffff021916908373ffffffffffffffffffffffffffffffffffffffff1602179055506000600c6000838152602001908152602001600020600082018160000190805461075b906130c8565b61076692919061289b565b50600182018160010190805461077b906130c8565b61078692919061289b565b506002820160009054906101000a900473ffffffffffffffffffffffffffffffffffffffff168160020160006101000a81548173ffffffffffffffffffffffffffffffffffffffff021916908373ffffffffffffffffffffffffffffffffffffffff16021790555060038201548160030155600482015481600401556005820154816005015560068201548160060155600782015481600701556008820154816008015590505061083760096112f2565b7fe2ac643fe0c93e6d5faa62e30dd4e2aa8ee98569351ed1b393e37ed47255a69033896040516108689291906131c3565b60405180910390a1505050505050505050565b6000610885612928565b6040518060400160405280876000600281106108a4576108a36131f3565b5b60200201518152602001876001600281106108c2576108c16131f3565b5b6020020151815250816000018190525060405180604001604052806040518060400160405280886000600281106108fc576108fb6131f3565b5b6020020151600060028110610914576109136131f3565b5b6020020151815260200188600060028110610932576109316131f3565b5b602002015160016002811061094a576109496131f3565b5b60200201518152508152602001604051806040016040528088600160028110610976576109756131f3565b5b602002015160006002811061098e5761098d6131f3565b5b60200201518152602001886001600281106109ac576109ab6131f3565b5b60200201516001600281106109c4576109c36131f3565b5b602002015181525081525081602001819052506040518060400160405280856000600281106109f6576109f56131f3565b5b6020020151815260200185600160028110610a1457610a136131f3565b5b602002015181525081604001819052506000603267ffffffffffffffff811115610a4157610a40612bc9565b5b604051908082528060200260200182016040528015610a6f5781602001602082028036833780820191505090505b50905060005b6032811015610ac857848160328110610a9157610a906131f3565b5b6020020151828281518110610aa957610aa86131f3565b5b6020026020010181815250508080610ac090613251565b915050610a75565b506000610ad58284611308565b1415610ae657600192505050610aed565b6000925050505b949350505050565b600080600a600084815260200190815260200160002060405180610120016040529081600082018054610b27906130c8565b80601f0160208091040260200160405190810160405280929190818152602001828054610b53906130c8565b8015610ba05780601f10610b7557610100808354040283529160200191610ba0565b820191906000526020600020905b815481529060010190602001808311610b8357829003601f168201915b50505050508152602001600182018054610bb9906130c8565b80601f0160208091040260200160405190810160405280929190818152602001828054610be5906130c8565b8015610c325780601f10610c0757610100808354040283529160200191610c32565b820191906000526020600020905b815481529060010190602001808311610c1557829003601f168201915b505050505081526020016002820160009054906101000a900473ffffffffffffffffffffffffffffffffffffffff1673ffffffffffffffffffffffffffffffffffffffff1673ffffffffffffffffffffffffffffffffffffffff16815260200160038201548152602001600482015481526020016005820154815260200160068201548152602001600782015481526020016008820154815250509050806101000151915050919050565b600080600a600084815260200190815260200160002060405180610120016040529081600082018054610d0f906130c8565b80601f0160208091040260200160405190810160405280929190818152602001828054610d3b906130c8565b8015610d885780601f10610d5d57610100808354040283529160200191610d88565b820191906000526020600020905b815481529060010190602001808311610d6b57829003601f168201915b50505050508152602001600182018054610da1906130c8565b80601f0160208091040260200160405190810160405280929190818152602001828054610dcd906130c8565b8015610e1a5780601f10610def57610100808354040283529160200191610e1a565b820191906000526020600020905b815481529060010190602001808311610dfd57829003601f168201915b505050505081526020016002820160009054906101000a900473ffffffffffffffffffffffffffffffffffffffff1673ffffffffffffffffffffffffffffffffffffffff1673ffffffffffffffffffffffffffffffffffffffff168152602001600382015481526020016004820154815260200160058201548152602001600682015481526020016007820154815260200160088201548152505090508060a00151915050919050565b600080600a600084815260200190815260200160002060405180610120016040529081600082018054610ef6906130c8565b80601f0160208091040260200160405190810160405280929190818152602001828054610f22906130c8565b8015610f6f5780601f10610f4457610100808354040283529160200191610f6f565b820191906000526020600020905b815481529060010190602001808311610f5257829003601f168201915b50505050508152602001600182018054610f88906130c8565b80601f0160208091040260200160405190810160405280929190818152602001828054610fb4906130c8565b80156110015780601f10610fd657610100808354040283529160200191611001565b820191906000526020600020905b815481529060010190602001808311610fe457829003601f168201915b505050505081526020016002820160009054906101000a900473ffffffffffffffffffffffffffffffffffffffff1673ffffffffffffffffffffffffffffffffffffffff1673ffffffffffffffffffffffffffffffffffffffff168152602001600382015481526020016004820154815260200160058201548152602001600682015481526020016007820154815260200160088201548152505090508060c00151915050919050565b600080600a6000848152602001908152602001600020604051806101200160405290816000820180546110dd906130c8565b80601f0160208091040260200160405190810160405280929190818152602001828054611109906130c8565b80156111565780601f1061112b57610100808354040283529160200191611156565b820191906000526020600020905b81548152906001019060200180831161113957829003601f168201915b5050505050815260200160018201805461116f906130c8565b80601f016020809104026020016040519081016040528092919081815260200182805461119b906130c8565b80156111e85780601f106111bd576101008083540402835291602001916111e8565b820191906000526020600020905b8154815290600101906020018083116111cb57829003601f168201915b505050505081526020016002820160009054906101000a900473ffffffffffffffffffffffffffffffffffffffff1673ffffffffffffffffffffffffffffffffffffffff1673ffffffffffffffffffffffffffffffffffffffff168152602001600382015481526020016004820154815260200160058201548152602001600682015481526020016007820154815260200160088201548152505090508060e00151915050919050565b600081600001549050919050565b6112a9886114fb565b6112b287611517565b6112bb86611534565b6112c4856115cb565b6112cd84611662565b6112d6836116f9565b6112df82611790565b6112e881611827565b5050505050505050565b6001816000016000828254019250508190555050565b6000807f30644e72e131a029b85045b68181585d2833e84879b9709143e1f593f0000001905060006113386118be565b90508060800151516001865161134e919061329a565b1461138e576040517f08c379a00000000000000000000000000000000000000000000000000000000081526004016113859061333c565b60405180910390fd5b60006040518060400160405280600081526020016000815250905060005b865181101561147d57838782815181106113c9576113c86131f3565b5b602002602001015110611411576040517f08c379a0000000000000000000000000000000000000000000000000000000008152600401611408906133a8565b60405180910390fd5b61146882611463856080015160018561142a919061329a565b8151811061143b5761143a6131f3565b5b60200260200101518a8581518110611456576114556131f3565b5b6020026020010151612082565b61215f565b9150808061147590613251565b9150506113ac565b506114a781836080015160008151811061149a576114996131f3565b5b602002602001015161215f565b90506114dd6114b98660000151612262565b8660200151846000015185602001518587604001518b604001518960600151612307565b6114ed57600193505050506114f5565b600093505050505b92915050565b8060008001908051906020019061151392919061295b565b5050565b806000600101908051906020019061153092919061295b565b5050565b806064811115611579576040517f08c379a000000000000000000000000000000000000000000000000000000000815260040161157090613414565b60405180910390fd5b60008110156115bd576040517f08c379a00000000000000000000000000000000000000000000000000000000081526004016115b490613480565b60405180910390fd5b816000600301819055505050565b806064811115611610576040517f08c379a000000000000000000000000000000000000000000000000000000000815260040161160790613414565b60405180910390fd5b6000811015611654576040517f08c379a000000000000000000000000000000000000000000000000000000000815260040161164b90613480565b60405180910390fd5b816000600401819055505050565b8060648111156116a7576040517f08c379a000000000000000000000000000000000000000000000000000000000815260040161169e90613414565b60405180910390fd5b60008110156116eb576040517f08c379a00000000000000000000000000000000000000000000000000000000081526004016116e290613480565b60405180910390fd5b816000600501819055505050565b80606481111561173e576040517f08c379a000000000000000000000000000000000000000000000000000000000815260040161173590613414565b60405180910390fd5b6000811015611782576040517f08c379a000000000000000000000000000000000000000000000000000000000815260040161177990613480565b60405180910390fd5b816000600601819055505050565b8060648111156117d5576040517f08c379a00000000000000000000000000000000000000000000000000000000081526004016117cc90613414565b60405180910390fd5b6000811015611819576040517f08c379a000000000000000000000000000000000000000000000000000000000815260040161181090613480565b60405180910390fd5b816000600701819055505050565b80606481111561186c576040517f08c379a000000000000000000000000000000000000000000000000000000000815260040161186390613414565b60405180910390fd5b60008110156118b0576040517f08c379a00000000000000000000000000000000000000000000000000000000081526004016118a790613480565b60405180910390fd5b816000600801819055505050565b6118c66129e1565b60405180604001604052807f031510aa7d3a034512d63b9a91e752fcf193d5124285a98342ba11eebcaa19f581526020017f19e2c6423270ad9e713c59e8a2bb7c6b7265b0b580d41920f4a59ad1fa68ee5d8152508160000181905250604051806040016040528060405180604001604052807f1247be11d7570cf3286512b41553729967baee5a80f93f7a8fbc2b269925972f81526020017f20ddf581bee1fc0192fc838378baaf66ff67a4d678fe86281e8aebb26dccb71d815250815260200160405180604001604052807f2b73d61f5f7c59534f7167d9d58e19e212d7433f2a90acf64c9e88fd0685db6781526020017f0be815857c9264292bc0692b63a513bdc924dd69503192f17c23bedb906a1aed8152508152508160200181905250604051806040016040528060405180604001604052807f198e9393920d483a7260bfb731fb5d25f1aa493335a9e71297e485b7aef312c281526020017f1800deef121f1e76426a00665e5c4479674322d4f75edadd46debd5cd992f6ed815250815260200160405180604001604052807f090689d0585ff075ec9e99ad690c3395bc4b313370b38ef355acdadcd122975b81526020017f12c85ea5db8c6deb4aab71808dcb408fe3d1e7690c43d37b4ce6cc0166fa7daa8152508152508160400181905250604051806040016040528060405180604001604052807f0ddd8ba489ce24b447671295c845ad65c22dc0a5f610543a9e751689f674c8cd81526020017f05e2341229ef6449ea48e13592a5786234f243c3041319acfa39718b69687f1e815250815260200160405180604001604052807f183e209ab5fa9efd1a9f93b451afb602b77ffd3c41a1ada07e2606911b73fd2581526020017f14f0c758c4e101dadf5dcb48f90761ecb5bf69ca551ea93a6d422f3ec7bc5c048152508152508160600181905250600a67ffffffffffffffff811115611b8d57611b8c612bc9565b5b604051908082528060200260200182016040528015611bc657816020015b611bb3612a28565b815260200190600190039081611bab5790505b50816080018190525060405180604001604052807f25264c56c0e192d92dbc117432fb17803bd81a1f906f5aee77250fa2eb23bb9b81526020017f2b2afcbbf97aefde772a607fd56c22f17098a1a4ea4ad9e963cb1a4216f44ce18152508160800151600081518110611c3c57611c3b6131f3565b5b602002602001018190525060405180604001604052807f28c40b3d84c61fc726197701d197ad0f15cc06a25c5bad17a2880fdd8ec64b1481526020017f0a005140aa60ee50793371b9309d78a8a5cd34b70681f9eaf1c93403a0703b6e8152508160800151600181518110611cb457611cb36131f3565b5b602002602001018190525060405180604001604052807f0f4fea7707a74afd0191cb98e580a7e4d956c35a91ee6d6daa7317c8c421dec781526020017f0225c415c86b479dc86f743224bb63e80aef108da9cd7d1f4f0bbac535daf93f8152508160800151600281518110611d2c57611d2b6131f3565b5b602002602001018190525060405180604001604052807f103417da84313c0a762b305d5d1e2b9366289038ce0f792dee451519928cde6d81526020017f0dcffdaf1689423c3c3a1beb893b77d76e7041d0965db4430bbc0fbbf7258e8e8152508160800151600381518110611da457611da36131f3565b5b602002602001018190525060405180604001604052807f299d41ee093c89f79caaf5567cbbb91b219ae301b66f7e51a891d9a0c2fafdd381526020017f1d521a371ca7452ff61127cb8566f2a8f46d01cf99a2369789c977fc2c171f7a8152508160800151600481518110611e1c57611e1b6131f3565b5b602002602001018190525060405180604001604052807f28b19a5b73cee47fe3d11a5a29db40f30160a531ba3b923bb80c140d2e31fa3281526020017f2653900abc55e6444087ed1fe178ecb12ac988d149f6ede369d22d4f1062b5348152508160800151600581518110611e9457611e936131f3565b5b602002602001018190525060405180604001604052807f12329fe1e21b40bc2a043a53ea3840a953b4f9b735a2c658654f62de8b7c054881526020017f16a3dc0014a7109308b8db48b0907c41d5fda1924f33df59c789ebc685c0dff28152508160800151600681518110611f0c57611f0b6131f3565b5b602002602001018190525060405180604001604052807f2c80f65720d776974f571cb52c0360b3be40cb85b2bd7936f31e247516c1ef0181526020017f0996216da70527d50e53a0e88506aaef0c0f49f116ed6a25eae26a8e98b6a28d8152508160800151600781518110611f8457611f836131f3565b5b602002602001018190525060405180604001604052807f22aeb657c57936468b26c6b65224635b832aba9913e7a111ffd0f23f94e10f1a81526020017f204dbd78779e4af7f26f41cccea148bc7374f01189b5b19c1e083268b8a50de78152508160800151600881518110611ffc57611ffb6131f3565b5b602002602001018190525060405180604001604052807f021e2bb18d567224a60c75fefd54d525e01b85bef6d3456a1bc34bb5ca8f5b0281526020017f07ccdd586884f1d21237f04859cdef4b9f37d56a4c91077551bed7ce2082f1ff8152508160800151600981518110612074576120736131f3565b5b602002602001018190525090565b61208a612a28565b612092612a42565b8360000151816000600381106120ab576120aa6131f3565b5b6020020181815250508360200151816001600381106120cd576120cc6131f3565b5b60200201818152505082816002600381106120eb576120ea6131f3565b5b602002018181525050600060608360808460076107d05a03fa9050806000811461211457612116565bfe5b5080612157576040517f08c379a000000000000000000000000000000000000000000000000000000000815260040161214e906134ec565b60405180910390fd5b505092915050565b612167612a28565b61216f612a64565b836000015181600060048110612188576121876131f3565b5b6020020181815250508360200151816001600481106121aa576121a96131f3565b5b6020020181815250508260000151816002600481106121cc576121cb6131f3565b5b6020020181815250508260200151816003600481106121ee576121ed6131f3565b5b602002018181525050600060608360c08460066107d05a03fa9050806000811461221757612219565bfe5b508061225a576040517f08c379a000000000000000000000000000000000000000000000000000000000815260040161225190613558565b60405180910390fd5b505092915050565b61226a612a28565b60007f30644e72e131a029b85045b68181585d97816a916871ca8d3c208c16d87cfd479050600083600001511480156122a7575060008360200151145b156122cb576040518060400160405280600081526020016000815250915050612302565b6040518060400160405280846000015181526020018285602001516122f091906135a7565b836122fb91906135d8565b8152509150505b919050565b600080600467ffffffffffffffff81111561232557612324612bc9565b5b60405190808252806020026020018201604052801561235e57816020015b61234b612a28565b8152602001906001900390816123435790505b5090506000600467ffffffffffffffff81111561237e5761237d612bc9565b5b6040519080825280602002602001820160405280156123b757816020015b6123a4612a86565b81526020019060019003908161239c5790505b5090508a826000815181106123cf576123ce6131f3565b5b602002602001018190525088826001815181106123ef576123ee6131f3565b5b6020026020010181905250868260028151811061240f5761240e6131f3565b5b6020026020010181905250848260038151811061242f5761242e6131f3565b5b6020026020010181905250898160008151811061244f5761244e6131f3565b5b6020026020010181905250878160018151811061246f5761246e6131f3565b5b6020026020010181905250858160028151811061248f5761248e6131f3565b5b602002602001018190525083816003815181106124af576124ae6131f3565b5b60200260200101819052506124c482826124d4565b9250505098975050505050505050565b6000815183511461251a576040517f08c379a000000000000000000000000000000000000000000000000000000000815260040161251190613658565b60405180910390fd5b600083519050600060068261252f9190613678565b905060008167ffffffffffffffff81111561254d5761254c612bc9565b5b60405190808252806020026020018201604052801561257b5781602001602082028036833780820191505090505b50905060005b838110156128005786818151811061259c5761259b6131f3565b5b6020026020010151600001518260006006846125b89190613678565b6125c2919061329a565b815181106125d3576125d26131f3565b5b6020026020010181815250508681815181106125f2576125f16131f3565b5b60200260200101516020015182600160068461260e9190613678565b612618919061329a565b81518110612629576126286131f3565b5b602002602001018181525050858181518110612648576126476131f3565b5b602002602001015160000151600060028110612667576126666131f3565b5b602002015182600260068461267c9190613678565b612686919061329a565b81518110612697576126966131f3565b5b6020026020010181815250508581815181106126b6576126b56131f3565b5b6020026020010151600001516001600281106126d5576126d46131f3565b5b60200201518260036006846126ea9190613678565b6126f4919061329a565b81518110612705576127046131f3565b5b602002602001018181525050858181518110612724576127236131f3565b5b602002602001015160200151600060028110612743576127426131f3565b5b60200201518260046006846127589190613678565b612762919061329a565b81518110612773576127726131f3565b5b602002602001018181525050858181518110612792576127916131f3565b5b6020026020010151602001516001600281106127b1576127b06131f3565b5b60200201518260056006846127c69190613678565b6127d0919061329a565b815181106127e1576127e06131f3565b5b60200260200101818152505080806127f890613251565b915050612581565b50612809612aac565b6000602082602086026020860160086107d05a03fa9050806000811461282e57612830565bfe5b5080612871576040517f08c379a00000000000000000000000000000000000000000000000000000000081526004016128689061371e565b60405180910390fd5b600082600060018110612887576128866131f3565b5b602002015114159550505050505092915050565b8280546128a7906130c8565b90600052602060002090601f0160209004810192826128c95760008555612917565b82601f106128da5780548555612917565b8280016001018555821561291757600052602060002091601f016020900482015b828111156129165782548255916001019190600101906128fb565b5b5090506129249190612ace565b5090565b604051806060016040528061293b612a28565b8152602001612948612a86565b8152602001612955612a28565b81525090565b828054612967906130c8565b90600052602060002090601f01602090048101928261298957600085556129d0565b82601f106129a257805160ff19168380011785556129d0565b828001600101855582156129d0579182015b828111156129cf5782518255916020019190600101906129b4565b5b5090506129dd9190612ace565b5090565b6040518060a001604052806129f4612a28565b8152602001612a01612a86565b8152602001612a0e612a86565b8152602001612a1b612a86565b8152602001606081525090565b604051806040016040528060008152602001600081525090565b6040518060600160405280600390602082028036833780820191505090505090565b6040518060800160405280600490602082028036833780820191505090505090565b6040518060400160405280612a99612aeb565b8152602001612aa6612aeb565b81525090565b6040518060200160405280600190602082028036833780820191505090505090565b5b80821115612ae7576000816000905550600101612acf565b5090565b6040518060400160405280600290602082028036833780820191505090505090565b6000604051905090565b600080fd5b600080fd5b6000819050919050565b612b3481612b21565b8114612b3f57600080fd5b50565b600081359050612b5181612b2b565b92915050565b600060208284031215612b6d57612b6c612b17565b5b6000612b7b84828501612b42565b91505092915050565b612b8d81612b21565b82525050565b6000602082019050612ba86000830184612b84565b92915050565b600080fd5b600080fd5b6000601f19601f8301169050919050565b7f4e487b7100000000000000000000000000000000000000000000000000000000600052604160045260246000fd5b612c0182612bb8565b810181811067ffffffffffffffff82111715612c2057612c1f612bc9565b5b80604052505050565b6000612c33612b0d565b9050612c3f8282612bf8565b919050565b600067ffffffffffffffff821115612c5f57612c5e612bc9565b5b612c6882612bb8565b9050602081019050919050565b82818337600083830152505050565b6000612c97612c9284612c44565b612c29565b905082815260208101848484011115612cb357612cb2612bb3565b5b612cbe848285612c75565b509392505050565b600082601f830112612cdb57612cda612bae565b5b8135612ceb848260208601612c84565b91505092915050565b600080600080600080600080610100898b031215612d1557612d14612b17565b5b600089013567ffffffffffffffff811115612d3357612d32612b1c565b5b612d3f8b828c01612cc6565b985050602089013567ffffffffffffffff811115612d6057612d5f612b1c565b5b612d6c8b828c01612cc6565b9750506040612d7d8b828c01612b42565b9650506060612d8e8b828c01612b42565b9550506080612d9f8b828c01612b42565b94505060a0612db08b828c01612b42565b93505060c0612dc18b828c01612b42565b92505060e0612dd28b828c01612b42565b9150509295985092959890939650565b600067ffffffffffffffff821115612dfd57612dfc612bc9565b5b602082029050919050565b600080fd5b6000612e20612e1b84612de2565b612c29565b90508060208402830185811115612e3a57612e39612e08565b5b835b81811015612e635780612e4f8882612b42565b845260208401935050602081019050612e3c565b5050509392505050565b600082601f830112612e8257612e81612bae565b5b6002612e8f848285612e0d565b91505092915050565b600067ffffffffffffffff821115612eb357612eb2612bc9565b5b602082029050919050565b6000612ed1612ecc84612e98565b612c29565b90508060408402830185811115612eeb57612eea612e08565b5b835b81811015612f145780612f008882612e6d565b845260208401935050604081019050612eed565b5050509392505050565b600082601f830112612f3357612f32612bae565b5b6002612f40848285612ebe565b91505092915050565b600067ffffffffffffffff821115612f6457612f63612bc9565b5b602082029050919050565b6000612f82612f7d84612f49565b612c29565b90508060208402830185811115612f9c57612f9b612e08565b5b835b81811015612fc55780612fb18882612b42565b845260208401935050602081019050612f9e565b5050509392505050565b600082601f830112612fe457612fe3612bae565b5b6032612ff1848285612f6f565b91505092915050565b600080600080610740858703121561301557613014612b17565b5b600061302387828801612e6d565b945050604061303487828801612f1e565b93505060c061304587828801612e6d565b92505061010061305787828801612fcf565b91505092959194509250565b60008115159050919050565b61307881613063565b82525050565b6000602082019050613093600083018461306f565b92915050565b7f4e487b7100000000000000000000000000000000000000000000000000000000600052602260045260246000fd5b600060028204905060018216806130e057607f821691505b602082108114156130f4576130f3613099565b5b50919050565b600073ffffffffffffffffffffffffffffffffffffffff82169050919050565b6000613125826130fa565b9050919050565b6131358161311a565b82525050565b600081519050919050565b600082825260208201905092915050565b60005b8381101561317557808201518184015260208101905061315a565b83811115613184576000848401525b50505050565b60006131958261313b565b61319f8185613146565b93506131af818560208601613157565b6131b881612bb8565b840191505092915050565b60006040820190506131d8600083018561312c565b81810360208301526131ea818461318a565b90509392505050565b7f4e487b7100000000000000000000000000000000000000000000000000000000600052603260045260246000fd5b7f4e487b7100000000000000000000000000000000000000000000000000000000600052601160045260246000fd5b600061325c82612b21565b91507fffffffffffffffffffffffffffffffffffffffffffffffffffffffffffffffff82141561328f5761328e613222565b5b600182019050919050565b60006132a582612b21565b91506132b083612b21565b9250827fffffffffffffffffffffffffffffffffffffffffffffffffffffffffffffffff038211156132e5576132e4613222565b5b828201905092915050565b7f76657269666965722d6261642d696e7075740000000000000000000000000000600082015250565b6000613326601283613146565b9150613331826132f0565b602082019050919050565b6000602082019050818103600083015261335581613319565b9050919050565b7f76657269666965722d6774652d736e61726b2d7363616c61722d6669656c6400600082015250565b6000613392601f83613146565b915061339d8261335c565b602082019050919050565b600060208201905081810360008301526133c181613385565b9050919050565b7f6f7574206f662072616e67652120313030206f76657200000000000000000000600082015250565b60006133fe601683613146565b9150613409826133c8565b602082019050919050565b6000602082019050818103600083015261342d816133f1565b9050919050565b7f6f7574206f662072616e6765212030206c6f7765720000000000000000000000600082015250565b600061346a601583613146565b915061347582613434565b602082019050919050565b600060208201905081810360008301526134998161345d565b9050919050565b7f70616972696e672d6d756c2d6661696c65640000000000000000000000000000600082015250565b60006134d6601283613146565b91506134e1826134a0565b602082019050919050565b60006020820190508181036000830152613505816134c9565b9050919050565b7f70616972696e672d6164642d6661696c65640000000000000000000000000000600082015250565b6000613542601283613146565b915061354d8261350c565b602082019050919050565b6000602082019050818103600083015261357181613535565b9050919050565b7f4e487b7100000000000000000000000000000000000000000000000000000000600052601260045260246000fd5b60006135b282612b21565b91506135bd83612b21565b9250826135cd576135cc613578565b5b828206905092915050565b60006135e382612b21565b91506135ee83612b21565b92508282101561360157613600613222565b5b828203905092915050565b7f70616972696e672d6c656e677468732d6661696c656400000000000000000000600082015250565b6000613642601683613146565b915061364d8261360c565b602082019050919050565b6000602082019050818103600083015261367181613635565b9050919050565b600061368382612b21565b915061368e83612b21565b9250817fffffffffffffffffffffffffffffffffffffffffffffffffffffffffffffffff04831182151516156136c7576136c6613222565b5b828202905092915050565b7f70616972696e672d6f70636f64652d6661696c65640000000000000000000000600082015250565b6000613708601583613146565b9150613713826136d2565b602082019050919050565b60006020820190508181036000830152613737816136fb565b905091905056fea2646970667358221220cbd9b5c50e9e151e34d36ef1367b394627048daca7f4b7188471f0b86b8ae62d64736f6c63430008090033",
  "linkReferences": {},
  "deployedLinkReferences": {}
}