{
  "_format": "hh-sol-artifact-1",
  "contractName": "Verifier",
  "sourceName": "contracts/verifier.sol",
  "abi": [
    {
      "inputs": [
        {
          "internalType": "uint256[2]",
          "name": "a",
          "type": "uint256[2]"
        },
        {
          "internalType": "uint256[2][2]",
          "name": "b",
          "type": "uint256[2][2]"
        },
        {
          "internalType": "uint256[2]",
          "name": "c",
          "type": "uint256[2]"
        },
        {
          "internalType": "uint256[50]",
          "name": "input",
          "type": "uint256[50]"
        }
      ],
      "name": "verifyProof",
      "outputs": [
        {
          "internalType": "bool",
          "name": "r",
          "type": "bool"
        }
      ],
      "stateMutability": "view",
      "type": "function"
    }
  ],
  "bytecode": "0x608060405234801561001057600080fd5b50611e33806100206000396000f3fe608060405234801561001057600080fd5b506004361061002b5760003560e01c8063a63bed3714610030575b600080fd5b61004a600480360381019061004591906118da565b610060565b604051610057919061195e565b60405180910390f35b600061006a6114aa565b60405180604001604052808760006002811061008957610088611979565b5b60200201518152602001876001600281106100a7576100a6611979565b5b6020020151815250816000018190525060405180604001604052806040518060400160405280886000600281106100e1576100e0611979565b5b60200201516000600281106100f9576100f8611979565b5b602002015181526020018860006002811061011757610116611979565b5b602002015160016002811061012f5761012e611979565b5b6020020151815250815260200160405180604001604052808860016002811061015b5761015a611979565b5b602002015160006002811061017357610172611979565b5b602002015181526020018860016002811061019157610190611979565b5b60200201516001600281106101a9576101a8611979565b5b602002015181525081525081602001819052506040518060400160405280856000600281106101db576101da611979565b5b60200201518152602001856001600281106101f9576101f8611979565b5b602002015181525081604001819052506000603267ffffffffffffffff81111561022657610225611611565b5b6040519080825280602002602001820160405280156102545781602001602082028036833780820191505090505b50905060005b60328110156102ad5784816032811061027657610275611979565b5b602002015182828151811061028e5761028d611979565b5b60200260200101818152505080806102a5906119d7565b91505061025a565b5060006102ba82846102da565b14156102cb576001925050506102d2565b6000925050505b949350505050565b6000807f30644e72e131a029b85045b68181585d2833e84879b9709143e1f593f00000019050600061030a6104cd565b9050806080015151600186516103209190611a20565b14610360576040517f08c379a000000000000000000000000000000000000000000000000000000000815260040161035790611ad3565b60405180910390fd5b60006040518060400160405280600081526020016000815250905060005b865181101561044f578387828151811061039b5761039a611979565b5b6020026020010151106103e3576040517f08c379a00000000000000000000000000000000000000000000000000000000081526004016103da90611b3f565b60405180910390fd5b61043a8261043585608001516001856103fc9190611a20565b8151811061040d5761040c611979565b5b60200260200101518a858151811061042857610427611979565b5b6020026020010151610c91565b610d6e565b91508080610447906119d7565b91505061037e565b5061047981836080015160008151811061046c5761046b611979565b5b6020026020010151610d6e565b90506104af61048b8660000151610e71565b8660200151846000015185602001518587604001518b604001518960600151610f16565b6104bf57600193505050506104c7565b600093505050505b92915050565b6104d56114dd565b60405180604001604052807f031510aa7d3a034512d63b9a91e752fcf193d5124285a98342ba11eebcaa19f581526020017f19e2c6423270ad9e713c59e8a2bb7c6b7265b0b580d41920f4a59ad1fa68ee5d8152508160000181905250604051806040016040528060405180604001604052807f1247be11d7570cf3286512b41553729967baee5a80f93f7a8fbc2b269925972f81526020017f20ddf581bee1fc0192fc838378baaf66ff67a4d678fe86281e8aebb26dccb71d815250815260200160405180604001604052807f2b73d61f5f7c59534f7167d9d58e19e212d7433f2a90acf64c9e88fd0685db6781526020017f0be815857c9264292bc0692b63a513bdc924dd69503192f17c23bedb906a1aed8152508152508160200181905250604051806040016040528060405180604001604052807f198e9393920d483a7260bfb731fb5d25f1aa493335a9e71297e485b7aef312c281526020017f1800deef121f1e76426a00665e5c4479674322d4f75edadd46debd5cd992f6ed815250815260200160405180604001604052807f090689d0585ff075ec9e99ad690c3395bc4b313370b38ef355acdadcd122975b81526020017f12c85ea5db8c6deb4aab71808dcb408fe3d1e7690c43d37b4ce6cc0166fa7daa8152508152508160400181905250604051806040016040528060405180604001604052807f0ddd8ba489ce24b447671295c845ad65c22dc0a5f610543a9e751689f674c8cd81526020017f05e2341229ef6449ea48e13592a5786234f243c3041319acfa39718b69687f1e815250815260200160405180604001604052807f183e209ab5fa9efd1a9f93b451afb602b77ffd3c41a1ada07e2606911b73fd2581526020017f14f0c758c4e101dadf5dcb48f90761ecb5bf69ca551ea93a6d422f3ec7bc5c048152508152508160600181905250600a67ffffffffffffffff81111561079c5761079b611611565b5b6040519080825280602002602001820160405280156107d557816020015b6107c2611524565b8152602001906001900390816107ba5790505b50816080018190525060405180604001604052807f25264c56c0e192d92dbc117432fb17803bd81a1f906f5aee77250fa2eb23bb9b81526020017f2b2afcbbf97aefde772a607fd56c22f17098a1a4ea4ad9e963cb1a4216f44ce1815250816080015160008151811061084b5761084a611979565b5b602002602001018190525060405180604001604052807f28c40b3d84c61fc726197701d197ad0f15cc06a25c5bad17a2880fdd8ec64b1481526020017f0a005140aa60ee50793371b9309d78a8a5cd34b70681f9eaf1c93403a0703b6e81525081608001516001815181106108c3576108c2611979565b5b602002602001018190525060405180604001604052807f0f4fea7707a74afd0191cb98e580a7e4d956c35a91ee6d6daa7317c8c421dec781526020017f0225c415c86b479dc86f743224bb63e80aef108da9cd7d1f4f0bbac535daf93f815250816080015160028151811061093b5761093a611979565b5b602002602001018190525060405180604001604052807f103417da84313c0a762b305d5d1e2b9366289038ce0f792dee451519928cde6d81526020017f0dcffdaf1689423c3c3a1beb893b77d76e7041d0965db4430bbc0fbbf7258e8e81525081608001516003815181106109b3576109b2611979565b5b602002602001018190525060405180604001604052807f299d41ee093c89f79caaf5567cbbb91b219ae301b66f7e51a891d9a0c2fafdd381526020017f1d521a371ca7452ff61127cb8566f2a8f46d01cf99a2369789c977fc2c171f7a8152508160800151600481518110610a2b57610a2a611979565b5b602002602001018190525060405180604001604052807f28b19a5b73cee47fe3d11a5a29db40f30160a531ba3b923bb80c140d2e31fa3281526020017f2653900abc55e6444087ed1fe178ecb12ac988d149f6ede369d22d4f1062b5348152508160800151600581518110610aa357610aa2611979565b5b602002602001018190525060405180604001604052807f12329fe1e21b40bc2a043a53ea3840a953b4f9b735a2c658654f62de8b7c054881526020017f16a3dc0014a7109308b8db48b0907c41d5fda1924f33df59c789ebc685c0dff28152508160800151600681518110610b1b57610b1a611979565b5b602002602001018190525060405180604001604052807f2c80f65720d776974f571cb52c0360b3be40cb85b2bd7936f31e247516c1ef0181526020017f0996216da70527d50e53a0e88506aaef0c0f49f116ed6a25eae26a8e98b6a28d8152508160800151600781518110610b9357610b92611979565b5b602002602001018190525060405180604001604052807f22aeb657c57936468b26c6b65224635b832aba9913e7a111ffd0f23f94e10f1a81526020017f204dbd78779e4af7f26f41cccea148bc7374f01189b5b19c1e083268b8a50de78152508160800151600881518110610c0b57610c0a611979565b5b602002602001018190525060405180604001604052807f021e2bb18d567224a60c75fefd54d525e01b85bef6d3456a1bc34bb5ca8f5b0281526020017f07ccdd586884f1d21237f04859cdef4b9f37d56a4c91077551bed7ce2082f1ff8152508160800151600981518110610c8357610c82611979565b5b602002602001018190525090565b610c99611524565b610ca161153e565b836000015181600060038110610cba57610cb9611979565b5b602002018181525050836020015181600160038110610cdc57610cdb611979565b5b6020020181815250508281600260038110610cfa57610cf9611979565b5b602002018181525050600060608360808460076107d05a03fa90508060008114610d2357610d25565bfe5b5080610d66576040517f08c379a0000000000000000000000000000000000000000000000000000000008152600401610d5d90611bab565b60405180910390fd5b505092915050565b610d76611524565b610d7e611560565b836000015181600060048110610d9757610d96611979565b5b602002018181525050836020015181600160048110610db957610db8611979565b5b602002018181525050826000015181600260048110610ddb57610dda611979565b5b602002018181525050826020015181600360048110610dfd57610dfc611979565b5b602002018181525050600060608360c08460066107d05a03fa90508060008114610e2657610e28565bfe5b5080610e69576040517f08c379a0000000000000000000000000000000000000000000000000000000008152600401610e6090611c17565b60405180910390fd5b505092915050565b610e79611524565b60007f30644e72e131a029b85045b68181585d97816a916871ca8d3c208c16d87cfd47905060008360000151148015610eb6575060008360200151145b15610eda576040518060400160405280600081526020016000815250915050610f11565b604051806040016040528084600001518152602001828560200151610eff9190611c66565b83610f0a9190611c97565b8152509150505b919050565b600080600467ffffffffffffffff811115610f3457610f33611611565b5b604051908082528060200260200182016040528015610f6d57816020015b610f5a611524565b815260200190600190039081610f525790505b5090506000600467ffffffffffffffff811115610f8d57610f8c611611565b5b604051908082528060200260200182016040528015610fc657816020015b610fb3611582565b815260200190600190039081610fab5790505b5090508a82600081518110610fde57610fdd611979565b5b60200260200101819052508882600181518110610ffe57610ffd611979565b5b6020026020010181905250868260028151811061101e5761101d611979565b5b6020026020010181905250848260038151811061103e5761103d611979565b5b6020026020010181905250898160008151811061105e5761105d611979565b5b6020026020010181905250878160018151811061107e5761107d611979565b5b6020026020010181905250858160028151811061109e5761109d611979565b5b602002602001018190525083816003815181106110be576110bd611979565b5b60200260200101819052506110d382826110e3565b9250505098975050505050505050565b60008151835114611129576040517f08c379a000000000000000000000000000000000000000000000000000000000815260040161112090611d17565b60405180910390fd5b600083519050600060068261113e9190611d37565b905060008167ffffffffffffffff81111561115c5761115b611611565b5b60405190808252806020026020018201604052801561118a5781602001602082028036833780820191505090505b50905060005b8381101561140f578681815181106111ab576111aa611979565b5b6020026020010151600001518260006006846111c79190611d37565b6111d19190611a20565b815181106111e2576111e1611979565b5b60200260200101818152505086818151811061120157611200611979565b5b60200260200101516020015182600160068461121d9190611d37565b6112279190611a20565b8151811061123857611237611979565b5b60200260200101818152505085818151811061125757611256611979565b5b60200260200101516000015160006002811061127657611275611979565b5b602002015182600260068461128b9190611d37565b6112959190611a20565b815181106112a6576112a5611979565b5b6020026020010181815250508581815181106112c5576112c4611979565b5b6020026020010151600001516001600281106112e4576112e3611979565b5b60200201518260036006846112f99190611d37565b6113039190611a20565b8151811061131457611313611979565b5b60200260200101818152505085818151811061133357611332611979565b5b60200260200101516020015160006002811061135257611351611979565b5b60200201518260046006846113679190611d37565b6113719190611a20565b8151811061138257611381611979565b5b6020026020010181815250508581815181106113a1576113a0611979565b5b6020026020010151602001516001600281106113c0576113bf611979565b5b60200201518260056006846113d59190611d37565b6113df9190611a20565b815181106113f0576113ef611979565b5b6020026020010181815250508080611407906119d7565b915050611190565b506114186115a8565b6000602082602086026020860160086107d05a03fa9050806000811461143d5761143f565bfe5b5080611480576040517f08c379a000000000000000000000000000000000000000000000000000000000815260040161147790611ddd565b60405180910390fd5b60008260006001811061149657611495611979565b5b602002015114159550505050505092915050565b60405180606001604052806114bd611524565b81526020016114ca611582565b81526020016114d7611524565b81525090565b6040518060a001604052806114f0611524565b81526020016114fd611582565b815260200161150a611582565b8152602001611517611582565b8152602001606081525090565b604051806040016040528060008152602001600081525090565b6040518060600160405280600390602082028036833780820191505090505090565b6040518060800160405280600490602082028036833780820191505090505090565b60405180604001604052806115956115ca565b81526020016115a26115ca565b81525090565b6040518060200160405280600190602082028036833780820191505090505090565b6040518060400160405280600290602082028036833780820191505090505090565b6000604051905090565b600080fd5b600080fd5b6000601f19601f8301169050919050565b7f4e487b7100000000000000000000000000000000000000000000000000000000600052604160045260246000fd5b61164982611600565b810181811067ffffffffffffffff8211171561166857611667611611565b5b80604052505050565b600061167b6115ec565b90506116878282611640565b919050565b600067ffffffffffffffff8211156116a7576116a6611611565b5b602082029050919050565b600080fd5b6000819050919050565b6116ca816116b7565b81146116d557600080fd5b50565b6000813590506116e7816116c1565b92915050565b60006117006116fb8461168c565b611671565b9050806020840283018581111561171a576117196116b2565b5b835b81811015611743578061172f88826116d8565b84526020840193505060208101905061171c565b5050509392505050565b600082601f830112611762576117616115fb565b5b600261176f8482856116ed565b91505092915050565b600067ffffffffffffffff82111561179357611792611611565b5b602082029050919050565b60006117b16117ac84611778565b611671565b905080604084028301858111156117cb576117ca6116b2565b5b835b818110156117f457806117e0888261174d565b8452602084019350506040810190506117cd565b5050509392505050565b600082601f830112611813576118126115fb565b5b600261182084828561179e565b91505092915050565b600067ffffffffffffffff82111561184457611843611611565b5b602082029050919050565b600061186261185d84611829565b611671565b9050806020840283018581111561187c5761187b6116b2565b5b835b818110156118a5578061189188826116d8565b84526020840193505060208101905061187e565b5050509392505050565b600082601f8301126118c4576118c36115fb565b5b60326118d184828561184f565b91505092915050565b60008060008061074085870312156118f5576118f46115f6565b5b60006119038782880161174d565b9450506040611914878288016117fe565b93505060c06119258782880161174d565b925050610100611937878288016118af565b91505092959194509250565b60008115159050919050565b61195881611943565b82525050565b6000602082019050611973600083018461194f565b92915050565b7f4e487b7100000000000000000000000000000000000000000000000000000000600052603260045260246000fd5b7f4e487b7100000000000000000000000000000000000000000000000000000000600052601160045260246000fd5b60006119e2826116b7565b91507fffffffffffffffffffffffffffffffffffffffffffffffffffffffffffffffff821415611a1557611a146119a8565b5b600182019050919050565b6000611a2b826116b7565b9150611a36836116b7565b9250827fffffffffffffffffffffffffffffffffffffffffffffffffffffffffffffffff03821115611a6b57611a6a6119a8565b5b828201905092915050565b600082825260208201905092915050565b7f76657269666965722d6261642d696e7075740000000000000000000000000000600082015250565b6000611abd601283611a76565b9150611ac882611a87565b602082019050919050565b60006020820190508181036000830152611aec81611ab0565b9050919050565b7f76657269666965722d6774652d736e61726b2d7363616c61722d6669656c6400600082015250565b6000611b29601f83611a76565b9150611b3482611af3565b602082019050919050565b60006020820190508181036000830152611b5881611b1c565b9050919050565b7f70616972696e672d6d756c2d6661696c65640000000000000000000000000000600082015250565b6000611b95601283611a76565b9150611ba082611b5f565b602082019050919050565b60006020820190508181036000830152611bc481611b88565b9050919050565b7f70616972696e672d6164642d6661696c65640000000000000000000000000000600082015250565b6000611c01601283611a76565b9150611c0c82611bcb565b602082019050919050565b60006020820190508181036000830152611c3081611bf4565b9050919050565b7f4e487b7100000000000000000000000000000000000000000000000000000000600052601260045260246000fd5b6000611c71826116b7565b9150611c7c836116b7565b925082611c8c57611c8b611c37565b5b828206905092915050565b6000611ca2826116b7565b9150611cad836116b7565b925082821015611cc057611cbf6119a8565b5b828203905092915050565b7f70616972696e672d6c656e677468732d6661696c656400000000000000000000600082015250565b6000611d01601683611a76565b9150611d0c82611ccb565b602082019050919050565b60006020820190508181036000830152611d3081611cf4565b9050919050565b6000611d42826116b7565b9150611d4d836116b7565b9250817fffffffffffffffffffffffffffffffffffffffffffffffffffffffffffffffff0483118215151615611d8657611d856119a8565b5b828202905092915050565b7f70616972696e672d6f70636f64652d6661696c65640000000000000000000000600082015250565b6000611dc7601583611a76565b9150611dd282611d91565b602082019050919050565b60006020820190508181036000830152611df681611dba565b905091905056fea26469706673582212205998498fd8b9519c7f5645b3f9a6ec10f696b62ea83d3e4805717b9d9b2c0f7c64736f6c63430008090033",
  "linkReferences": {},
  "deployedLinkReferences": {}
}